{"abi":[{"type":"constructor","inputs":[{"name":"period","type":"uint48","internalType":"uint48"},{"name":"slashCount","type":"uint256","internalType":"uint256"}],"stateMutability":"nonpayable"},{"type":"function","name":"PERIOD","inputs":[],"outputs":[{"name":"","type":"uint48","internalType":"uint48"}],"stateMutability":"view"},{"type":"function","name":"SLASH_COUNT","inputs":[],"outputs":[{"name":"","type":"uint256","internalType":"uint256"}],"stateMutability":"view"},{"type":"function","name":"onSlash","inputs":[{"name":"subnetwork","type":"bytes32","internalType":"bytes32"},{"name":"","type":"address","internalType":"address"},{"name":"","type":"uint256","internalType":"uint256"},{"name":"","type":"uint48","internalType":"uint48"},{"name":"","type":"bytes","internalType":"bytes"}],"outputs":[],"stateMutability":"nonpayable"},{"type":"error","name":"InvalidBufferSize","inputs":[]},{"type":"error","name":"InvalidSlashCount","inputs":[]},{"type":"error","name":"NotOperatorSpecificDelegator","inputs":[]},{"type":"error","name":"NotVaultDelegator","inputs":[]},{"type":"error","name":"SafeCastOverflowedUintDowncast","inputs":[{"name":"bits","type":"uint8","internalType":"uint8"},{"name":"value","type":"uint256","internalType":"uint256"}]}],"bytecode":{"object":"0x60c034609b57601f6106c538819003918201601f19168301916001600160401b03831184841017609f578084926040948552833981010312609b5780519065ffffffffffff82168203609b576020015190811560895760805260a05260405161061190816100b4823960805181818161010d0152610407015260a05181818160ce015261023f0152f35b6040516339b5ac3d60e01b8152600490fd5b5f80fd5b634e487b7160e01b5f52604160045260245ffdfe6080806040526004361015610012575f80fd5b5f3560e01c908163b4d1d795146100f157508063d524c328146100b75763e49561ee1461003d575f80fd5b346100b35760a03660031901126100b3576024356001600160a01b038116036100b35760643565ffffffffffff8116036100b35760843567ffffffffffffffff8082116100b357366023830112156100b35781600401359081116100b357369101602401116100b3576100b16004356101a7565b005b5f80fd5b346100b3575f3660031901126100b35760206040517f00000000000000000000000000000000000000000000000000000000000000008152f35b346100b3575f3660031901126100b35760209065ffffffffffff7f0000000000000000000000000000000000000000000000000000000000000000168152f35b90601f8019910116810190811067ffffffffffffffff82111761015357604052565b634e487b7160e01b5f52604160045260245ffd5b908160209103126100b357516001600160a01b03811681036100b35790565b9190820391821161019357565b634e487b7160e01b5f52601160045260245ffd5b60408051635d927f4560e11b815260209060049082818381335afa90811561038a575f9161054d575b50600267ffffffffffffffff8092160361053f57835163fbfa77cf60e01b81529280848481335afa938415610535575f94610516575b508451630ce9b79360e41b81526001600160a01b039485169482828681895afa91821561050c575f926104dd575b50339116036104cd577f000000000000000000000000000000000000000000000000000000000000000090845f525f8152855f2061027f816001815491015490818082109118021890565b156104a8575b508551633eb22c0f60e01b81528481018890526024959082818881335afa90811561049e575f91610471575b501561046757805f525f8252865f209265ffffffffffff92836102d3426105a9565b1685545f19968782146104555760016102f5918184018155019182549061058b565b905f52825f200155825f525f81528161031d8a5f206001815491015490818082109118021890565b149485610394575b5050505050610336575b5050505050565b333b156100b35783519462428a6960e31b8652828601525f838601525f8560448183335af1801561038a571561032f578411610379575050525f8080808061032f565b604190634e487b7160e01b5f52525ffd5b84513d5f823e3d90fd5b9091929394506103a3426105a9565b935f525f8252885f2090808401938411610433576001825492019384549283811084821802841882101561044557906103db91610186565b90810190811161043357916103f6610404959492879461058b565b915f525f2001549116610186565b907f00000000000000000000000000000000000000000000000000000000000000001610155f80808080610325565b88601189634e487b7160e01b5f52525ffd5b8a603286634e487b715f5252601cfd5b8a60118b634e487b7160e01b5f52525ffd5b5050505050505050565b90508281813d8311610497575b6104888183610131565b810103126100b357515f6102b1565b503d61047e565b88513d5f823e3d90fd5b82156104bd576001815f85935501555f610285565b8651630c01a34b60e41b81528590fd5b84516318c0166360e31b81528390fd5b6104fe919250833d8511610505575b6104f68183610131565b810190610167565b905f610234565b503d6104ec565b87513d5f823e3d90fd5b8161052e9295503d8611610505576104f68183610131565b925f610206565b85513d5f823e3d90fd5b5082516263a0ed60e51b8152fd5b90508281813d8311610584575b6105648183610131565b810103126100b3575167ffffffffffffffff811681036100b3575f6101d0565b503d61055a565b8115610595570690565b634e487b7160e01b5f52601260045260245ffd5b65ffffffffffff908181116105bc571690565b604490604051906306dfcc6560e41b8252603060048301526024820152fdfea2646970667358221220a22d7c31652e2faf5c445ebb3e5d694be4246eadfc66de890f21930751fb637964736f6c63430008190033","linkReferences":{}},"methodIdentifiers":{"PERIOD()":"b4d1d795","SLASH_COUNT()":"d524c328","onSlash(bytes32,address,uint256,uint48,bytes)":"e49561ee"},"id":116}