{"abi":[{"type":"constructor","inputs":[{"name":"period","type":"uint48","internalType":"uint48"},{"name":"slashCount","type":"uint256","internalType":"uint256"}],"stateMutability":"nonpayable"},{"type":"function","name":"PERIOD","inputs":[],"outputs":[{"name":"","type":"uint48","internalType":"uint48"}],"stateMutability":"view"},{"type":"function","name":"SLASH_COUNT","inputs":[],"outputs":[{"name":"","type":"uint256","internalType":"uint256"}],"stateMutability":"view"},{"type":"function","name":"onSlash","inputs":[{"name":"subnetwork","type":"bytes32","internalType":"bytes32"},{"name":"","type":"address","internalType":"address"},{"name":"","type":"uint256","internalType":"uint256"},{"name":"","type":"uint48","internalType":"uint48"},{"name":"","type":"bytes","internalType":"bytes"}],"outputs":[],"stateMutability":"nonpayable"},{"type":"error","name":"InvalidBufferSize","inputs":[]},{"type":"error","name":"InvalidSlashCount","inputs":[]},{"type":"error","name":"NotOperatorSpecificDelegator","inputs":[]},{"type":"error","name":"NotVaultDelegator","inputs":[]},{"type":"error","name":"SafeCastOverflowedUintDowncast","inputs":[{"name":"bits","type":"uint8","internalType":"uint8"},{"name":"value","type":"uint256","internalType":"uint256"}]}],"bytecode":{"object":"0x60c03460a357601f61069738819003918201601f19168301916001600160401b0383118484101760a757808492604094855283398101031260a35780519065ffffffffffff8216820360a3576020015190811560915760805260a0526040516105db90816100bc823960805181818161030a01526104bb015260a0518181816101970152818161036e015261047c0152f35b6040516339b5ac3d60e01b8152600490fd5b5f80fd5b634e487b7160e01b5f52604160045260245ffdfe608060409080825260049182361015610016575f80fd5b5f915f3560e01c908163b4d1d7951461049f57508063d524c328146104655763e49561ee14610043575f80fd5b346102755760a0366003190112610275576001600160a01b0392803591906024908135868116036102755765ffffffffffff95606435878116036102755767ffffffffffffffff906084358281116102755736602382011215610275578084013583811161027557369101850111610275578451635d927f4560e11b81526020919082818681335afa80156104135784905f9061042c575b60029250160361041d57855163fbfa77cf60e01b815282818681335afa908115610413579082915f916103f6575b508751630ce9b79360e41b815291169183828781865afa9182156103ec575f926103bd575b50339116036103ad575f525f8152845f20865f528152845f2097600189019081541561036c575b8061015f42610573565b168a54905f199182811461033857600181018d55845461017e91610555565b845f52855f2001558a54928054808510818618028118927f000000000000000000000000000000000000000000000000000000000000000080851496876102b1575b505050505050506101cf578680f35b8451633eb22c0f60e01b815283810187905281818681335afa9182156102a7575f92610279575b5050610210575b5050505050809155805f80808080808680f35b333b156102755783519462428a6960e31b8652828601525f838601525f8560448183335af1801561026b57156101fd57909192938095501161025a575050525f80808080806101fd565b604190634e487b7160e01b5f52525ffd5b84513d5f823e3d90fd5b5f80fd5b90809250813d83116102a0575b61029081836104df565b8101031261027557515f806101f6565b503d610286565b86513d5f823e3d90fd5b90919293949596506102c242610573565b9583830192831161035a5782101561034a57906102de91610534565b90810190811161033857916102f885926103079594610555565b905f52855f2001549116610534565b907f00000000000000000000000000000000000000000000000000000000000000001610155f8080808080806101c0565b88601189634e487b7160e01b5f52525ffd5b8a603289634e487b715f5252601cfd5b8b60118c634e487b7160e01b5f52525ffd5b7f0000000000000000000000000000000000000000000000000000000000000000801561039d575f8b558255610155565b8751630c01a34b60e41b81528690fd5b85516318c0166360e31b81528490fd5b6103de919250843d86116103e5575b6103d681836104df565b810190610515565b905f61012e565b503d6103cc565b88513d5f823e3d90fd5b61040d9150843d86116103e5576103d681836104df565b5f610109565b87513d5f823e3d90fd5b85516263a0ed60e51b81528490fd5b50508281813d831161045e575b61044381836104df565b810103126102755751838116810361027557836002916100db565b503d610439565b5034610275575f36600319011261027557602090517f00000000000000000000000000000000000000000000000000000000000000008152f35b34610275575f3660031901126102755760209065ffffffffffff7f0000000000000000000000000000000000000000000000000000000000000000168152f35b90601f8019910116810190811067ffffffffffffffff82111761050157604052565b634e487b7160e01b5f52604160045260245ffd5b9081602091031261027557516001600160a01b03811681036102755790565b9190820391821161054157565b634e487b7160e01b5f52601160045260245ffd5b811561055f570690565b634e487b7160e01b5f52601260045260245ffd5b65ffffffffffff90818111610586571690565b604490604051906306dfcc6560e41b8252603060048301526024820152fdfea2646970667358221220c55ffd58682350e60c60144fa60cbbb6299d2cb19e2ca7a62f435b687c31f6ff64736f6c63430008190033","linkReferences":{}},"methodIdentifiers":{"PERIOD()":"b4d1d795","SLASH_COUNT()":"d524c328","onSlash(bytes32,address,uint256,uint48,bytes)":"e49561ee"},"id":105}