{"abi":[{"type":"constructor","inputs":[{"name":"vault_","type":"address","internalType":"address"},{"name":"type_","type":"uint64","internalType":"uint64"}],"stateMutability":"nonpayable"},{"type":"function","name":"TYPE","inputs":[],"outputs":[{"name":"","type":"uint64","internalType":"uint64"}],"stateMutability":"view"},{"type":"function","name":"onSlash","inputs":[{"name":"target","type":"address","internalType":"address"},{"name":"subnetwork","type":"bytes32","internalType":"bytes32"},{"name":"operator","type":"address","internalType":"address"},{"name":"slashedAmount","type":"uint256","internalType":"uint256"},{"name":"captureTimestamp","type":"uint48","internalType":"uint48"},{"name":"data","type":"bytes","internalType":"bytes"}],"outputs":[],"stateMutability":"nonpayable"},{"type":"function","name":"vault","inputs":[],"outputs":[{"name":"","type":"address","internalType":"address"}],"stateMutability":"view"}],"bytecode":{"object":"0x6080346094576001600160401b0390601f61029838819003918201601f191683019184831184841017609857808492604094855283398101031260945780516001600160a01b03811691908290036094576020015191821682036094575f80546001600160e01b0319169190911760a09290921b600160a01b600160e01b03169190911790556040516101eb90816100ad8239f35b5f80fd5b634e487b7160e01b5f52604160045260245ffdfe6080806040526004361015610012575f80fd5b5f905f3560e01c908163271971091461009257508063bb24fe8a146100685763fbfa77cf1461003f575f80fd5b34610065578060031936011261006557546040516001600160a01b039091168152602090f35b80fd5b503461006557806003193601126100655767ffffffffffffffff6020915460a01c16604051908152f35b9050346101b15760c03660031901126101b1576004356001600160a01b03818116918290036101b1576044359081168091036101b1576084359165ffffffffffff83168093036101b15760a4359067ffffffffffffffff938483116101b157366023840112156101b1578260040135908582116101b15736602483860101116101b157823b156101b15760c48783819694602483965f9a968b9763724ab0f760e11b875283356004880152838701526064356044870152606486015260a060848601528260a486015201848401378181018301849052601f01601f191681010301925af180156101a657610184578280f35b908092501161019257604052005b634e487b7160e01b5f52604160045260245ffd5b6040513d5f823e3d90fd5b5f80fdfea2646970667358221220d2665e691450b50170698c57d0d30ca59baf6249b3fe527af9de465606b61b5a64736f6c63430008190033","linkReferences":{}},"methodIdentifiers":{"TYPE()":"bb24fe8a","onSlash(address,bytes32,address,uint256,uint48,bytes)":"27197109","vault()":"fbfa77cf"},"id":114}