{"abi":[{"type":"function","name":"onSlash","inputs":[{"name":"subnetwork","type":"bytes32","internalType":"bytes32"},{"name":"operator","type":"address","internalType":"address"},{"name":"slashedAmount","type":"uint256","internalType":"uint256"},{"name":"captureTimestamp","type":"uint48","internalType":"uint48"},{"name":"data","type":"bytes","internalType":"bytes"}],"outputs":[],"stateMutability":"nonpayable"},{"type":"error","name":"NotNetworkRestakeDelegator","inputs":[]}],"bytecode":{"object":"0x608080604052346015576107c1908161001a8239f35b5f80fdfe60806040526004361015610011575f80fd5b5f3560e01c63e49561ee14610024575f80fd5b346100a85760a03660031901126100a8576024356001600160a01b03811681036100a85760643565ffffffffffff811681036100a8576084359167ffffffffffffffff918284116100a857366023850112156100a85783600401359283116100a85736602484860101116100a85760246100a6940191604435906004356101a7565b005b5f80fd5b6040810190811067ffffffffffffffff8211176100c857604052565b634e487b7160e01b5f52604160045260245ffd5b6020810190811067ffffffffffffffff8211176100c857604052565b90601f8019910116810190811067ffffffffffffffff8211176100c857604052565b908160209103126100a857516001600160a01b03811681036100a85790565b9265ffffffffffff9060209360a096938652600180881b031684860152166040840152608060608401528051918291826080860152018484015e5f828201840152601f01601f1916010190565b9190820391821161019357565b634e487b7160e01b5f52601160045260245ffd5b60408051635d927f4560e11b81529196909560049592949260209283878981335afa96871561059e575f9761069e575b5067ffffffffffffffff80971661068e5784156106825782019183818403126100a8578035908782116100a8570188818403126100a85788519061021a826100ac565b803588811681036100a857825284810135908882116100a857019083601f830112156100a857813588811161066f578a519461025f601f8301601f19168801876100f8565b8186528682850101116100a85785815f92828c960183890137860101528085019384525116806103c65750505186818051810103126100a85786516102a3816100ac565b828881840151938484520151910152905b86516342c53e3360e01b81528681018981526001600160a01b03861660208201528290829081906040010381335afa9182156103bc575f9261038e575b505080610303575b5050505050505050565b6103106103159383610186565b6106de565b90333b156100a857845163a33bc28760e01b8152848101969096526001600160a01b0316602486015260448501525f8460648183335af1801561038457610360575b808080806102f9565b83116103715750525f808080610357565b604190634e487b7160e01b5f525260245ffd5b83513d5f823e3d90fd5b90809250813d83116103b5575b6103a581836100f8565b810103126100a857515f806102f1565b503d61039b565b88513d5f823e3d90fd5b6001036104205750516060818051810103126100a8578651606081018181108782111761040d578852876060848401519384845282810151868501520151910152906102b4565b604188634e487b7160e01b5f525260245ffd5b875163fbfa77cf60e01b815290915082818881335afa9081156103bc579083915f91610652575b50885163b134427160e01b81526001600160a01b0392909182908a90829086165afa90811561059e5790869392915f91610625575b50848b8a6104ab8d87815191610491836100dc565b5f83525163e02f693760e01b8152998a9586958601610139565b0381335afa9384156105ec575f946105f6575b50895163068af8b160e21b8152808a018c81526001600160a01b038916602082015292909116918590829081906040010381855afa9081156105ec578a9493928c8b8989958c955f916105a8575b506105439161051a91610186565b98805190610527826100dc565b5f82525163aa8e648960e01b8152978896879586958601610139565b03915afa90811561059e575f9161056f575b506105639061056993610186565b90610186565b906102b4565b90508381813d8311610597575b61058681836100f8565b810103126100a85751610569610555565b503d61057c565b89513d5f823e3d90fd5b99505050505091905084813d83116105e5575b6105c581836100f8565b810103126100a8578685918c8b61054361051a8f998c905191509161050c565b503d6105bb565b8a513d5f823e3d90fd5b9093508481813d831161061e575b61060e81836100f8565b810103126100a85751925f6104be565b503d610604565b6106459150853d871161064b575b61063d81836100f8565b81019061011a565b5f61047c565b503d610633565b6106699150823d841161064b5761063d81836100f8565b5f610447565b60418a634e487b7160e01b5f525260245ffd5b50505050505050505050565b88516306d4818960e01b81528890fd5b9096508381813d83116106d7575b6106b681836100f8565b810103126100a8575167ffffffffffffffff811681036100a857955f6101d7565b503d6106ac565b91818302915f198185099383808610950394808603951461076957848311156107515790829109815f038216809204600280826003021880830282030280830282030280830282030280830282030280830282030280920290030293600183805f03040190848311900302920304170290565b82634e487b715f52156003026011186020526024601cfd5b505080925015610777570490565b634e487b7160e01b5f52601260045260245ffdfea2646970667358221220d8303602c65a9cfdbe6b31084f9746ecba9cc04a567e819e3fc017206e03523964736f6c63430008190033","linkReferences":{}},"methodIdentifiers":{"onSlash(bytes32,address,uint256,uint48,bytes)":"e49561ee"},"id":101}